:020000040800F2
:100000000000022001B30008354A0008374A000802
:10001000394A00083B4A00083D4A00080000000039
:1000200000000000000000000000000011A6000811
:100030003F4A000800000000B1A6000825A1000802
:1000400051B3000851B3000851B3000851B3000880
:1000500051B3000851B3000851B3000851B3000870
:1000600051B3000851B3000851B3000851B3000860
:1000700051B3000851B3000851B3000851B3000850
:10008000414A0008514A000851B3000851B3000822
:1000900051B3000851B3000851B3000851B3000830
:1000A00051B30008614A000851B3000851B3000879
:1000B00051B3000851B3000851B3000851B3000810
:1000C00051B3000851B3000851B3000851B3000800
:1000D00051B30008714A0008814A000851B3000872
:1000E00051B3000851B3000851B3000851B30008E0
:1000F00051B3000851B3000851B3000851B30008D0
:1001000051B3000851B3000851B3000851B30008BF
:1001100051B3000851B3000851B3000851B30008AF
:1001200051B30008914A0008A14A000851B30008E1
:1001300051B3000851B3000851B3000851B300088F
:1001400051B3000851B3000851B30008B14A000888
:1001500051B30008C14A0008D14A0008E14A00082A
:1001600051B3000851B3000851B3000851B300085F
:1001700051B3000851B3000851B30008000000005B
:0801800051B3000851B300085F
:1001C0000348044B834202D0034B03B118477047E6
:1001D0002C0100202C0100200000000005480649E9
:1001E0000B1AD90F01EBA301491002D0034B03B145
:1001F000184770472C0100202C010020000000004F
:1002000010B5064C237843B9FFF7DAFF044B13B15E
:100210000448AFF300800123237010BD300100209B
:1002200000000000606F010808B5044B1BB10449D1
:100230000448AFF30080BDE80840CFE700000000AD
:1002400034010020606F0108014B1868704700BF3F
:100250000000002070B50D4E0D4D761BB61006D077
:100260000024013455F8043B9847A642F9D1094EC1
:10027000094D761B16F074FEB61006D0002401342A
:1002800055F8043B9847A642F9D170BD6C7C010833
:100290006C7C0108707C01086C7C0108024B0146F3
:1002A000186800F04BB900BF00000020024B014667
:1002B000186800F0EDB800BF00000020844641EA55
:1002C000000313F003036DD1403A41D351F8043BCE
:1002D00040F8043B51F8043B40F8043B51F8043B20
:1002E00040F8043B51F8043B40F8043B51F8043B10
:1002F00040F8043B51F8043B40F8043B51F8043B00
:1003000040F8043B51F8043B40F8043B51F8043BEF
:1003100040F8043B51F8043B40F8043B51F8043BDF
:1003200040F8043B51F8043B40F8043B51F8043BCF
:1003300040F8043B51F8043B40F8043B51F8043BBF
:1003400040F8043B51F8043B40F8043B403ABDD22E
:10035000303211D351F8043B40F8043B51F8043BD0
:1003600040F8043B51F8043B40F8043B51F8043B8F
:1003700040F8043B103AEDD20C3205D351F8043B5F
:1003800040F8043B043AF9D2043208D0D2071CBF2B
:1003900011F8013B00F8013B01D30B880380604654
:1003A000704700BF082A13D38B078DD010F00303CA
:1003B0008AD0C3F10403D21ADB071CBF11F8013B3A
:1003C00000F8013B80D331F8023B20F8023B7BE789
:1003D000043AD9D3013A11F8013B00F8013BF9D2B4
:1003E0000B7803704B7843708B788370604670474E
:1003F000F0B4860746D0541E002A3CD0CAB2034649
:1004000002E014F1FF3436D303F8012B9D07F8D135
:10041000032C29D9CDB245EA05250F2C45EA05451F
:1004200033D9A4F11006360903F1200707EB0617AC
:1004300003F1100242E9045542E902551032BA4272
:10044000F8D1721C14F00C0F03EB021204F00F062B
:1004500013D0331F23F003030433134442F8045B27
:100460009342FBD106F003042CB1C9B21C4403F83B
:10047000011B9C42FBD1F0BC704734461346002C54
:10048000F3D1F8E714460346C2E71A462646E0E7EA
:1004900000293CD038B551F8043C0C1F002BB8BFE4
:1004A000E418054600F04CFA234B1A682AB1A24220
:1004B0000DD921686018824223D0626028461C60F2
:1004C000BDE8384000F03EBAA34203D81A4653684C
:1004D000002BF9D111685018A04219D024D82168F6
:1004E0006018834206D0636054602846BDE83840F7
:1004F00000F028BAD3E9000301446360216054602E
:10050000F3E7D2E90002014462602160D6E7704758
:1005100020680144501883421160E6D1D3E90003FA
:10052000014453601160E0E70C232B602846BDE8CE
:10053000384000F007BA00BF4C010020F8B5CD1CD0
:1005400025F0030508350C2D38BF0C25002D064677
:1005500033DBA94231D82A4F00F0F2F93A6852B1A0
:1005600013685B1B04D43FE023685B1B29D522463C
:100570005468002CF8D1796800293BD029463046D0
:1005800000F074F8431C28D0C41C24F00304A042DB
:1005900005D0211A304600F069F801301DD02560E1
:1005A000304600F0CFF904F10B0020F00700231DC6
:1005B000C21A01D01B1AA350F8BD0C2232600020D1
:1005C000F8BD0B2B05D8A242636811D05360E7E752
:1005D000144623601C442560E2E70C233046336058
:1005E00000F0B0F90020F8BD0B2BF1D85368144689
:1005F0003B60D5E7304600F039F87860BEE700BFD1
:100600004C0100200EB410B5044683B008B18369D4
:1006100063B106A803460190059AA168204600F040
:10062000D7F903B0BDE8104003B0704700F018F9E7
:10063000EFE700BF0FB410B50B4B1C6882B00CB1D4
:10064000A36963B105A803460190049AA1682046F6
:1006500000F0BEF902B0BDE8104004B0704720467B
:1006600000F0FEF8EEE700BF0000002038B5074CB0
:10067000002305460846236004F0AAF9431C00D075
:1006800038BD2368002BFBD02B6038BDB0C90020DB
:1006900000207047014900F029B900BF3D1400084F
:1006A0000020704770B54A1E682505FB02F50E460E
:1006B00005F17401FFF742FF044640B100210C3000
:1006C000666005F168022160A060FFF791FE204698
:1006D00070BD00BF1E4B70B51D68AB69064643B3C5
:1006E0004835D5E90134013B05D51EE0013B5A1CD4
:1006F00004F1680419D0B4F90C20002AF6D10025C1
:10070000144B6566C4E90055A560C4E90455A561AC
:100710002946E360082204F15C00FFF769FEC4E9A2
:100720000D55C4E91255204670BD2C682CB12546E4
:10073000D7E7284600F010F8D2E704213046FFF74B
:10074000B1FF044628600028F1D10C233360EAE7AA
:10075000786F01080100FFFF2DE9F84F334B344952
:100760001A68816290424FF00003C0E912330365BA
:1007700004BF012383610546FFF7ACFF686028468C
:10078000FFF7A8FFA8602846FFF7A4FF6E68E8609F
:1007900000240423F3607466C6E90044B460C6E92B
:1007A0000444B461214606F15C000822FFF720FEF4
:1007B000DFF888B0AF68DFF888A0DFF88890DFF84E
:1007C00088801C4BC6F83080C6E9086BC6E90AA9C8
:1007D0002146FB6008227C66C7E90044BC60C7E98B
:1007E0000444BC6107F15C00FFF702FEEE68124BA7
:1007F000C7F83080C7E9087BC7E90AA92146F3603A
:100800007466C6E90044B460C6E90444B46106F104
:100810005C000822FFF7ECFD0123C6E9086BC6E97E
:100820000AA9C6F83080AB61BDE8F88F786F01087F
:10083000950600080900010012000200711000086E
:1008400099100008D9100008F9100008024B03495C
:10085000186800F04BB800BF786F01083D1400081D
:10086000836903B978E77047704700BF704700BFDE
:10087000704700BF704700BF024B0349186800F083
:100880000FB800BF0000002091060008024B03498A
:10089000186800F005B800BF00000020A10600089D
:1008A0002DE9F04110F148071BD088460026D7E912
:1008B0000154013D0FD4A389012B05F1FF3506D961
:1008C000B4F90E300133204601D0C04706436B1CFB
:1008D00004F16804EFD13F68002FE8D13046BDE84D
:1008E000F0813E463046BDE8F08100BF2DE9F84377
:1008F00010F148071FD0884606464FF00009D7E997
:100900000154013D11D4A389012B05F1FF3508D90C
:10091000B4F90E3001332146304602D0C04749EACF
:1009200000096B1C04F16804EDD13F68002FE6D18B
:100930004846BDE8F883B9464846BDE8F88300BF9D
:10094000704700BF704700BF9368013B002B936066
:1009500011DA10B49469A34209DB0A2907D013689D
:10096000581C1060197008465DF8044B70475DF81C
:10097000044B00F0C5BB1368581C10601970084682
:10098000704700BF9BB1F8B513440F4606465D1E85
:10099000541E01E0AC4208D03A4614F8011F30461C
:1009A000FFF7D2FF431CF5D1F8BD0020F8BD0020B1
:1009B000704700BF936810B5144613B953601846CA
:1009C00010BD00F07DFD0023C4E9013310BD00BF60
:1009D0002DE9F04F9FB08B4690461C46039018B10E
:1009E0008369002B00F0B780A24B9B4500F0B980D3
:1009F000A14B9B4500F0C780A04B9B4504BF039BC8
:100A0000D3F80CB0BBF80C30180740F1B280DBF81B
:100A10001030002B00F0AD8030238DF8323098F884
:100A200000300594002120220B918DF83120944E46
:100A30000127002B00F08780252B00F0158145460B
:100A400003E0252B00F0A38025466B786C1C002B5F
:100A5000F7D1B4EB080A76D042465346594603987C
:100A6000FFF790FF01306ED00B9B6A7853440B93D5
:100A7000002A68D000234FF0FF3201340693CDE9FD
:100A800008338DF85B301C93079205E0069A07FA4D
:100A900003F313432C4606932546052215F8011B44
:100AA000304600F025FFAA46831B0028EED1069BA6
:100AB000D90644BF20228DF85B2021781A0744BF55
:100AC0002B228DF85B202A2966D1059A1168043201
:100AD00000290592C0F29D8009916178A51C2E29FC
:100AE00073D0684C0322204600F002FF002800F07B
:100AF0008680001B069B402404FA00F00343069303
:100B000005F10108297860488DF83010062200F0C0
:100B1000EFFE002800F083805C4B002B72D005AB09
:100B200000935A465A4B039806A9AFF300808146BA
:100B3000B9F1FF3F07D00B9B4B440B9398F8003063
:100B4000002B7FF479AFBBF80C305B0618D40B9800
:100B50001FB0BDE8F08FFFF783FE464B9B457FF447
:100B600047AF039BD3F804B0BBF80C3018073FF530
:100B70004EAF5946039800F039FB00283FF44CAFC4
:100B80004FF0FF30E4E7039BD3F808B03AE7B4EB4B
:100B9000080A3FF46FAF5FE7A1F13002092A88BF6E
:100BA000A2469CD8099B01E02C460135297803EB2D
:100BB000830302EB4303A1F13002092AAA46F3D9C9
:100BC0002E2904F1020509938BD19AF801102A29E4
:100BD0002FD1059B9AF802101A6807920433002A55
:100BE00005930AF103050AF1020338DB254C0322C1
:100BF00020469A4600F07CFE00287FF47AAFA84693
:100C000055467FE7059B073323F007030833059319
:100C100091E7494243F00203099106935DE705AB72
:100C200000935A461A4B039806A900F0D5F881465E
:100C30007EE7A1F130020023092A079301D915E0CC
:100C40005546697803EB830302EB4303A1F13002BD
:100C5000092A05F1010AF3D90235079341E74FF05C
:100C6000FF329A4607923CE7444603E7AA4601351D
:100C700037E700BFBC6F01089C6F01087C6F01085B
:100C80002C7201083472010838720108000000005B
:100C90008509000810B4044C13460A460146206832
:100CA0005DF8044BFFF794BE000000202DE9F047EB
:100CB0000C4691460A698968DDF820808A42B8BFEF
:100CC0000A46C9F8002094F8431006461F4611B1A1
:100CD0000132C9F80020236899065CD5D9F80020B4
:100CE0000232C9F80020236813F0060F19461DD1FF
:100CF000E1688A1A002AD8BF194617DD04F1190ADB
:100D0000002505E0E368D9F800209B1AAB420CDD12
:100D10000123524639463046C047013005F10105EE
:100D2000F0D14FF0FF30BDE8F087216894F84330F0
:100D3000003318BF01238A060AD5E1185A1C302057
:100D400081F84300224494F8451082F8431002339E
:100D500004F1430239463046C0470130E1D02368F0
:100D6000A268216903F00603042B1DD08A4226DD08
:100D70004FF00009521A91441A34002501E04D4504
:100D80001DDA0123224639463046C047013005F1BD
:100D90000105F4D1C5E713F0060F13D094F84330E2
:100DA000003318BF0123D3E7D9F80000E3688A4273
:100DB000A3EB000323EAE379DCDC002BDCDC00207E
:100DC000BDE8F087E168D9F800208A1A002AD8BF68
:100DD000194693DCAAE700BF2DE9F0430C46097ED3
:100DE00085B06E29064617460C98984604F1430EC6
:100DF0006DD039D9732900F0F68044D9752900F0F7
:100E00000481782940F0118178232268DFF858C2E4
:100E100084F845300168150651F8043B016040F143
:100E2000A180D10744BF42F020022260002B00F0D5
:100E300093801022002184F843106068A06000288D
:100E4000C0F2C880216821F004012160002B40F02D
:100E5000A380002840F0C0807546082A00F0AC80CE
:100E6000AEEB0503236141E0632900F0E5801AD869
:100E7000002938D0582940F0D88084F845102268DD
:100E8000DFF8E8C1C6E76F2900F0BF80702940F0A5
:100E9000CC802268DFF8D0C142F0200278232260A3
:100EA00084F84530B6E7642902D0692940F0BD8056
:100EB00022680368110603F1040557D51968056017
:100EC0000B46002959DBDFF8A4C10A22B5E7036805
:100ED000226861691D1D056015061B6802D4500655
:100EE00000F1BD801960002375462361CDF80080B4
:100EF0003B4603AA21463046FFF7D8FE013020D0FA
:100F00002A46236939463046C047013019D0226845
:100F10000398E368920719D51A1A002A16DD04F11E
:100F20001909002504E0E36803981A1AAA420DDDA6
:100F300001234A4639463046C047013005F10105D4
:100F4000F1D14FF0FF3005B0BDE8F0839842B8BF53
:100F5000184605B0BDE8F083226822F02002226026
:100F6000102267E7500648BF9BB25AE75106A5D545
:100F7000B3F9003005601946A3E76168A1602D2030
:100F80000029C3F1000384F8430002DB22F00402CD
:100F90002260DFF8D8C00A22754600E00B46B3FB9A
:100FA000F2F102FB113093421CF8000005F8010D2C
:100FB000F4D2082A7FF454AF2368DB077FF550AFE3
:100FC000626823699A423FF74BAF302305F8013C32
:100FD000013D45E7002BDFD19CF8003084F842301A
:100FE00004F1420539E703686268191D01601D6854
:100FF0000021284600F07CFC002832D0401B6060B5
:101000002061002384F8433070E72268036812F0FF
:10101000800F03F104051AD01B6805606F290CBF0F
:1010200008220A22DFF844C004E7012384F84210B2
:10103000236104F14205E4E703681A68191D0123DE
:10104000016004F1420584F842202361D9E712F0DF
:10105000400F0DBF1B6805601B880560DEE7198027
:1010600041E76068CCE700BF547201084072010894
:1010700010B50C46B1F90E1000F018FD002803DB86
:10108000636D0344636510BDA38923F48053A3817A
:1010900010BD00BF002070472DE9F0411646B1F9A0
:1010A0000C201F46D3050C460546B1F90E1009D495
:1010B00022F48052A2813B4632462846BDE8F041E8
:1010C00000F07EB80022022300F07EFBB4F90C2071
:1010D000B4F90E10ECE700BF10B50C46B1F90E10D4
:1010E00000F072FBA389421C0EBF23F4805343F42B
:1010F00080536065A38110BDB1F90E1000F0F6B801
:10110000F8B50D461446064608B1836943B3254B2E
:101110009C422AD0244B9C4229D0244B9C4208BF9D
:10112000F468A389A269A2601A0722D5236903B3D0
:1011300022686169D31AEDB299422F4629DD013345
:10114000A168501C0139A1602060157062699A4243
:1011500016D0A389DB0701D50A2D11D03846F8BD7A
:10116000FFF77EFB0F4B9C42D4D17468D9E7B4687B
:10117000D7E72146304600F039F838B92369D7E778
:101180002146304600F05AF90028E7D04FF0FF37EB
:10119000E4E72146304600F051F90028F6D12268F4
:1011A0000123CDE7BC6F01089C6F01087C6F01082B
:1011B000024B0A4601461868FFF7A2BF0000002054
:1011C00070B50D46084C114606461A4628460023BF
:1011D000236003F0EFFB431C00D070BD2368002B9D
:1011E000FBD0336070BD00BFB0C900203B4B70B571
:1011F0001D6806460C460DB1AB69DBB1384B9C420D
:101200001ED0384B9C424AD0374B9C4208BFEC68FA
:10121000B4F90C2093B2190718D5206908B313F05C
:1012200001022CD0636900225B42A361A26060B31B
:10123000002070BD2846FFF713FB294B9C42E0D1EC
:101240006C68B4F90C2093B21907E6D4DD063CD5DE
:10125000580726D4206942F00803A3819BB20028D6
:10126000DDD103F42072B2F5007FD8D0304621469C
:1012700000F0EEFAA389206913F00102D2D1990798
:1012800058BF6269A2600028D2D1B4F90C301A06A6
:10129000CFD543F04003A3814FF0FF3070BDAC6861
:1012A000B6E7616B51B104F14403994204D0304672
:1012B000FFF7EEF8B4F90C200023636300232069E4
:1012C000636022F024022060C5E742F04002092357
:1012D00033604FF0FF30A28170BD00BF00000020DE
:1012E000BC6F01089C6F01087C6F010838B5074C82
:1012F000002305460846236003F090FB431C00D002
:1013000038BD2368002BFBD02B6038BDB0C900204E
:101310008B891A072DE9F0410C46804641D44A6872
:10132000002A59DDE66A002E53D00022D8F800507A
:10133000216AC8F8002013F4805251D1012340469D
:10134000B047431C5FD0A389E66A216A5F0705D5D1
:101350006268636B801A0BB1236CC01A02460023CB
:101360004046B047461C45D1D8F80030B4F90C20AF
:10137000002B55D01D2B01D0162B5AD123690022EA
:10138000C4E90032616BC8F8005011B304F14403A2
:10139000994202D04046FFF77BF800206063BDE829
:1013A000F0810E69AEB10D680E6099070CBF6369DC
:1013B0000023AD1BA3600AE02B463246A76A216AD0
:1013C0004046B8470028A5EB000506440ADD002D7D
:1013D000F2DC0020BDE8F0810A6C002AA2DCF8E70C
:1013E000606DB3E7A38943F04003A3814FF0FF3062
:1013F000BDE8F0812269A389226000226260DA04DC
:10140000C0D56065BEE7D8F80030002B9BD01D2BFF
:101410000CD0162B0AD0A38943F04003A381D9E74F
:101420002169C4E90013D304ACD5EAE7C8F8005039
:10143000CFE742F04002A281CCE700BF0B6923B3A3
:1014400010B5044682B008B18369BBB1104B994214
:1014500012D0104B994216D00F4B994208BFE16849
:10146000B1F90C302BB1204602B0BDE81040FFF7B7
:101470004FBF002002B010BD6168F1E70191FFF796
:10148000EFF90199E2E7A168EAE70020704700BFA1
:10149000BC6F01089C6F01087C6F010820B1054BEF
:1014A00001461868FFF7CABF034B04491868FFF7E5
:1014B0001DBA00BF00000020786F01083D1400082D
:1014C0009368002B00F002812DE9F04FB1F90C3048
:1014D0009BB20C46190783B08246904635D52269E7
:1014E0009AB313F00202D8F800603DD00027D4F878
:1014F00028B0D4F820C0DFF8CC923D464D452B46AD
:101500003A4628BF4B4661465046D5B1D8470028D9
:1015100040F3D280D8F808301B1A07442D1AC8F8B7
:101520000830002B00F0B780D4F820C0D4F828B0E1
:101530004D452B463A4628BF4B4661465046002D46
:10154000E4D1D6E900750836D8E721465046FFF7C2
:101550004DFE002840F03081B4F90C30D8F800601E
:101560009BB213F00202C1D113F0010940F0B08028
:10157000A76820684D46002D54D09A0540F1BC80E4
:10158000AF42BB4600F2E78013F4906F2FD0D4E94E
:10159000041707EB4707A0EB010B07EBD777681C95
:1015A0007F105844B8423A4684BF07463A465B0526
:1015B00040F1E98011465046FEF7C0FF002800F0D8
:1015C000F5805A4621690190FEF778FEA289019BB9
:1015D00022F4906242F08002A281A7EB0B0203EB9F
:1015E0000B00676123612060A2602F46AB465A461C
:1015F000494600F0CDF9A2682368D21B5B442F4610
:10160000A26023600025D8F80830DB1BB944C8F875
:101610000830002B3FD0B4F90C30A76820689BB28B
:10162000002DAAD1D6E900950836A4E70BF10803EE
:1016300053E902679B460833002FF9D03A460A2146
:10164000304600F055F9002853D00130A0EB0609D0
:101650004B46D4E904122068BB4228BF3B4688426F
:1016600003D9A5681544AB4219DC9A427DDC1346C8
:10167000A56A216A32465046A847051E1CDDB9EB13
:1016800005096BD00120D8F808305B1B2E447F1B66
:10169000C8F8083013BB002003B0BDE8F08F314616
:1016A0002A4600F075F923682B44236021465046F2
:1016B000FFF7C4FE0028E2D0B4F90C3043F0400339
:1016C0004FF0FF30A38103B0BDE8F08F00207047DA
:1016D00033469146104617464E469B46002FA5D0EE
:1016E0000028B5D13A460A21304600F001F9002819
:1016F000ABD17B1C9946ACE72369834215D3616962
:10170000A94212D82E4BA76A9D4294BF2B466FF078
:1017100000434A4693FBF1F3504601FB03F3216A71
:10172000B847071EC8DDED1B6DE7AF4228BF2F4647
:101730003A46494600F02CF9A3682268DB1B3A447C
:10174000A3602260002BEED121465046FFF776FEC3
:101750000028E8D0B0E72F46AB4648E72146504680
:10176000FFF76CFE00288ED0A6E71A46314601939B
:1017700000F00EF9019BA1682268C91A1A44A16001
:1017800022601D467BE7504600F06AF903460028B8
:101790007FF423AF21695046FEF77AFEB4F90C308E
:1017A0000C2223F08003CAF8002087E70C23CAF834
:1017B0000030B4F90C3081E74FF0FF306CE700BF28
:1017C000FEFFFF7F00FCFF7F70B50D46084C114601
:1017D00006461A4628460023236003F029F9431CD5
:1017E00000D070BD2368002BFBD0336070BD00BFFC
:1017F000B0C9002070B50C46B1F90E10002996B0A2
:1018000016461D4613DB6A4600F066F900280EDB1B
:10181000019A02F47042A2F50052B2FA82F2520921
:101820004FF4806300202A60336016B070BDA38936
:1018300000221B062A6004D540230020336016B026
:1018400070BD4FF480630020336016B070BD00BFE0
:101850008A8992070B4606D501F1470201211A60D9
:10186000C3E90421704770B582B001AB6A460C46EB
:101870000646FFF7BFFF009905463046FEF75EFEBD
:10188000B4F90C3070B11649B162019A0099206028
:1018900043F08003A381C4E904018AB92B43A381E7
:1018A00002B070BD9A05FBD423F0030304F1470294
:1018B00043F002030121A3812260C4E90421EFE780
:1018C0003046B4F90E1000F01BF910B9B4F90C3021
:1018D000E4E7A38923F0030343F001031BB2DDE730
:1018E0009506000800000000000000000000000055
:1018F00001F0FF01102A2BDB10F0070F08D010F8C1
:10190000013B013A8B422DD010F0070F42B3F6D1C4
:10191000F0B441EA012141EA014122F007047FF0DD
:1019200000070023F0E80256083C85EA010586EA34
:10193000010685FA47F5A3FA87F586FA47F6A5FA70
:1019400087F68EB9EED1F0BC01F0FF0102F007027C
:1019500032B110F8013B013A83EA010313B1F8D127
:101960000020704701387047002D06BF3546033808
:10197000073815F0010F07D1013015F4807F02BF41
:10198000013015F4C03F0130F0BC0138704700BF92
:101990008842F0B40DD98B1883420AD9841832B129
:1019A000224613F8014D02F8014D9942F9D1F0BCDD
:1019B00070470F2A0ED80346541E002AF7D0013470
:1019C0000C44013B11F8012B03F8012FA142F9D17E
:1019D000F0BC704740EA01039B073BD1A2F110071E
:1019E0003F0901F1200606EB071601F1100300F193
:1019F000100453F8105C44F8105C53F80C5C44F885
:101A00000C5C53F8085C44F8085C53F8045C44F838
:101A1000045C1033B34204F11004EAD17B1C1B01B7
:101A200012F00C0F194402F00F05034415D0043DC9
:101A3000AD0803EB850C1C1F0E4656F8047B44F8DA
:101A4000047F6445F9D10135AD002B44294402F0EF
:101A50000302B1E7541E0346B1E72A46ACE700BFD4
:101A600009B3F8B51446CAB106460D4600F05AF857
:101A7000A04202D32F463846F8BD21463046FEF735
:101A80005DFD07460028F6D022462946FEF716FCE3
:101A900030462946FEF7FCFC3846F8BD2746FEF7DF
:101AA000F7FC3846F8BD1146FEF748BD70B50D4647
:101AB000084C114606461A4628460023236002F0C9
:101AC00069FF431C00D070BD2368002BFBD033603E
:101AD00070BD00BFB0C9002038B50B46074C0546A5
:101AE000114618460023236002F09BFF431C00D0E0
:101AF00038BD2368002BFBD02B6038BDB0C9002057
:101B000038B5074C002305460846236002F08EFFD7
:101B1000431C00D038BD2368002BFBD02B6038BDA0
:101B2000B0C9002051F8043C181F002BBCBF0B5853
:101B3000C01870470000000051EC100BF8B5C1F35D
:101B40000A53A3F2FF35132D0C4610EE106A30DC59
:101B5000002D1EDB384F2F4107EA010303432DD030
:101B600033A3D3E9002300F071F80022002300F032
:101B7000B3FC48B1002C04DA4FF4801343FA05F5A6
:101B80002C4424EA070400262346324643EC102B5B
:101B9000F8BD27A3D3E9002300F058F80022002362
:101BA00000F09AFC0028EFD0002C29DB00263446F8
:101BB000EAE7332D05DDB5F5806F19D041EC100B48
:101BC000F8BDA3F213434FF0FF37DF400742F5D0D3
:101BD00017A3D3E9002300F039F80022002300F016
:101BE0007BFC0028D0D0002C13DB26EA0706CBE7CD
:101BF00010EE102A0B4600F029F841EC100BF8BD4E
:101C000024F000430D4A1E43002E18BF1446002640
:101C1000BAE7142D08D00123C5F1340503FA05F500
:101C2000AE1928BFE418E0E70134DEE7AFF3008027
:101C30009C7500883CE4377EFFFF0F000000F0BF7A
:101C400081F0004102E000BF83F0004330B54FEA6D
:101C500041044FEA430594EA050F08BF90EA020FDA
:101C60001FBF54EA000C55EA020C7FEA645C7FEA6D
:101C7000655C00F0E2804FEA5454D4EB5555B8BF90
:101C80006D420CDD2C4480EA020281EA030382EA01
:101C9000000083EA010180EA020281EA0303362D93
:101CA00088BF30BD11F0004F4FEA01314FF4801C66
:101CB0004CEA113102D0404261EB410113F0004F78
:101CC0004FEA03334CEA133302D0524263EB43032F
:101CD00094EA050F00F0A780A4F10104D5F1200ECD
:101CE0000DDB02FA0EFC22FA05F2801841F1000128
:101CF00003FA0EF2801843FA05F359410EE0A5F1FC
:101D000020050EF1200E012A03FA0EFC28BF4CF02C
:101D1000020C43FA05F3C01851EBE37101F00045E2
:101D200007D54FF0000EDCF1000C7EEB00006EEBEF
:101D30000101B1F5801F1BD3B1F5001F0CD3490879
:101D40005FEA30004FEA3C0C04F101044FEA4452D0
:101D500012F5800F80F09A80BCF1004F08BF5FEA57
:101D6000500C50F1000041EB045141EA050130BD37
:101D70005FEA4C0C404141EB0101013C28BFB1F549
:101D8000801FE9D291F0000F04BF01460020B1FA94
:101D900081F308BF2033A3F10B03B3F120020CDA67
:101DA0000C3208DD02F1140CC2F10C0201FA0CF045
:101DB00021FA02F10CE002F11402D8BFC2F1200CAA
:101DC00001FA02F120FA0CFCDCBF41EA0C01904060
:101DD000E41AA2BF01EB0451294330BD6FEA0404A9
:101DE0001F3C1CDA0C340EDC04F11404C4F1200294
:101DF00020FA04F001FA02F340EA030021FA04F3A6
:101E000045EA030130BDC4F10C04C4F1200220FAFC
:101E100002F001FA04F340EA0300294630BD21FA3A
:101E200004F0294630BD94F0000F83F4801306BF00
:101E300081F480110134013D4EE77FEA645C18BFF4
:101E40007FEA655C29D094EA050F08BF90EA020F8B
:101E500005D054EA000C04BF1946104630BD91EA83
:101E6000030F1EBF0021002030BD5FEA545C05D186
:101E70004000494128BF41F0004130BD14F58004C5
:101E80003CBF01F5801130BD01F0004545F0FE4139
:101E900041F470014FF0000030BD7FEA645C1ABF6E
:101EA000194610467FEA655C1CBF0B46024650EAA5
:101EB000013406BF52EA033591EA030F41F40021D1
:101EC00030BD00BF90F0000F04BF0021704730B557
:101ED0004FF4806404F132044FF000054FF000012C
:101EE00050E700BF90F0000F04BF0021704730B5ED
:101EF0004FF4806404F1320410F0004548BF4042C2
:101F00004FF000013EE700BF42004FEAE2014FEA16
:101F100031014FEA02701FBF12F07F4393F07F4FF1
:101F200081F06051704732F07F4208BF704793F0F4
:101F30007F4F04BF41F40021704730B54FF4607407
:101F400001F0004521F000411CE700BF50EA01020A
:101F500008BF704730B54FF000050AE050EA0102B3
:101F600008BF704730B511F0004502D5404261EB23
:101F700041014FF4806404F132045FEA915C3FF464
:101F8000D8AE4FF003025FEADC0C18BF03325FEA01
:101F9000DC0C18BF033202EBDC02C2F1200300FAB2
:101FA00003FC20FA02F001FA03FE40EA0E0021FAD7
:101FB00002F11444BDE600BF70B54FF0FF0C4CF4C5
:101FC000E06C1CEA11541DBF1CEA135594EA0C0F77
:101FD00095EA0C0F00F0DEF82C4481EA030621EAB2
:101FE0004C5123EA4C5350EA013518BF52EA0335ED
:101FF00041F4801143F4801338D0A0FB02CE4FF09F
:102000000005E1FB02E506F00042E0FB03E54FF0CE
:102010000006E1FB03569CF0000F18BF4EF0010EC6
:10202000A4F1FF04B6F5007F64F5407404D25FEAC2
:102030004E0E6D4146EB060642EAC62141EA555175
:102040004FEAC52040EA5E504FEACE2EB4F1FD0CB7
:1020500088BFBCF5E06F1ED8BEF1004F08BF5FEA35
:10206000500E50F1000041EB045170BD06F00046E7
:1020700046EA010140EA020081EA0301B4EB5C0494
:10208000C2BFD4EB0C0541EA045170BD41F480118C
:102090004FF0000E013C00F3AB8014F1360FDEBFB1
:1020A000002001F0004170BDC4F10004203C35DA8D
:1020B0000C341BDC04F11404C4F1200500FA05F310
:1020C00020FA04F001FA05F240EA020001F00042B1
:1020D00021F0004110EBD37021FA04F642EB060127
:1020E0005EEA430E08BF20EAD37070BDC4F10C0451
:1020F000C4F1200500FA04F320FA05F001FA04F215
:1021000040EA020001F0004110EBD37041F1000100
:102110005EEA430E08BF20EAD37070BDC4F120050B
:1021200000FA05F24EEA020E20FA04F301FA05F273
:1021300043EA020321FA04F001F0004121FA04F21B
:1021400020EA020000EBD3705EEA430E08BF20EAEB
:10215000D37070BD94F0000F0FD101F00046400025
:1021600041EB010111F4801F08BF013CF7D041EAA7
:10217000060195F0000F18BF704703F000465200AB
:1021800043EB030313F4801F08BF013DF7D043EA7C
:102190000603704794EA0C0F0CEA135518BF95EA32
:1021A0000C0F0CD050EA410618BF52EA4306D1D1B9
:1021B00081EA030101F000414FF0000070BD50EAD8
:1021C000410606BF1046194652EA430619D094EA62
:1021D0000C0F02D150EA013613D195EA0C0F05D14C
:1021E00052EA03361CBF104619460AD181EA0301A0
:1021F00001F0004141F0FE4141F470014FF0000058
:1022000070BD41F0FE4141F4780170BD70B54FF0F2
:10221000FF0C4CF4E06C1CEA11541DBF1CEA135572
:1022200094EA0C0F95EA0C0F00F0A7F8A4EB050454
:1022300081EA030E52EA03354FEA013100F088804B
:102240004FEA03334FF0805545EA131343EA126314
:102250004FEA022245EA111545EA10654FEA0026C9
:102260000EF000419D4208BF964244F1FD0404F582
:10227000407402D25B084FEA3202B61A65EB0305DE
:102280005B084FEA32024FF480104FF4002CB6EB9B
:10229000020E75EB030E22BFB61A754640EA0C001B
:1022A0005B084FEA3202B6EB020E75EB030E22BF5B
:1022B000B61A754640EA5C005B084FEA3202B6EB9C
:1022C000020E75EB030E22BFB61A754640EA9C005B
:1022D0005B084FEA3202B6EB020E75EB030E22BF2B
:1022E000B61A754640EADC0055EA060E18D04FEAE9
:1022F000051545EA16754FEA06164FEAC30343EA89
:1023000052734FEAC2025FEA1C1CC0D111F4801F55
:102310000BD141EA00014FF000004FF0004CB6E74E
:1023200011F4801F04BF01430020B4F1FD0C88BFED
:10233000BCF5E06F3FF6AFAEB5EB030C04BFB6EBF8
:10234000020C5FEA500C50F1000041EB045170BDEB
:102350000EF0004E4EEA113114EB5C04C2BFD4EB18
:102360000C0541EA045170BD41F480114FF0000E9C
:10237000013C90E645EA060E8DE60CEA135594EA18
:102380000C0F08BF95EA0C0F3FF43BAF94EA0C0F1B
:102390000AD150EA01347FF434AF95EA0C0F7FF490
:1023A00025AF104619462CE795EA0C0F06D152EAE4
:1023B00003353FF4FDAE1046194622E750EA4106C8
:1023C00018BF52EA43067FF4C5AE50EA41047FF4D9
:1023D0000DAF52EA43057FF4EBAE12E74FF0FF3C3E
:1023E00006E000BF4FF0010C02E000BF4FF0010C0F
:1023F0004DF804CD4FEA410C7FEA6C5C4FEA430C88
:1024000018BF7FEA6C5C1BD001B050EA410C0CBFD6
:1024100052EA430C91EA030F02BF90EA020F002038
:10242000704710F1000F91EA030F58BF994208BF9F
:1024300090422CBFD8176FEAE37040F0010070475C
:102440004FEA410C7FEA6C5C02D150EA013C07D1B3
:102450004FEA430C7FEA6C5CD6D152EA033CD3D0FE
:102460005DF8040B704700BF8446104662468C46F8
:102470001946634600E000BF01B5FFF7B7FF00282B
:1024800048BF10F1000F01BD4DF808EDFFF7F4FF54
:102490000CBF012000205DF808FB00BF4DF808EDDF
:1024A000FFF7EAFF34BF012000205DF808FB00BF02
:1024B0004DF808EDFFF7E0FF94BF012000205DF824
:1024C00008FB00BF4DF808EDFFF7CEFF94BF0120D9
:1024D00000205DF808FB00BF4DF808EDFFF7C4FFD2
:1024E00034BF012000205DF808FB00BF4A0011D274
:1024F00012F5001211D20DD56FF47873B3EB62525E
:102500000ED44FEAC12343F0004343EA505323FA69
:1025100002F070474FF00000704750EA013002D1DE
:102520004FF0FF3070474FF0000070474FEA410214
:10253000B2F1E04324BFB3F5001CDCF1FE5C0DD921
:1025400001F0004C4FEAC0024CEA5070B2F1004F6B
:1025500040EB830008BF20F00100704711F0804F6E
:1025600021D113F13872BCBF01F00040704741F433
:1025700080114FEA5252C2F11802C2F1200C10FA37
:102580000CF320FA02F018BF40F001004FEAC1231B
:102590004FEAD32303FA0CFC40EA0C0023FA02F3BF
:1025A0004FEA4303CCE77FEA625307D150EA013395
:1025B0001EBF4FF0FE4040F44000704701F0004065
:1025C00040F0FE4040F40000704700BF7BB972B994
:1025D0000029BEBF00204FF0004106E008BF0028E0
:1025E0001CBF6FF000414FF0FF3000F0B9B9ADF102
:1025F000080C6DE904CE002909DB002B1ADB00F082
:102600004DF8DDF804E0DDE9022304B070474042F4
:1026100061EB4101002B1BDB00F040F8DDF804E02A
:10262000DDE9022304B0404261EB4101524263EB19
:1026300043037047524263EB430300F02FF8DDF889
:1026400004E0DDE9022304B0404261EB4101704740
:10265000524263EB430300F021F8DDF804E0DDE9CA
:10266000022304B0524263EB4303704753B94AB9A3
:10267000002908BF00281CBF4FF0FF314FF0FF308A
:1026800000F06EB9ADF1080C6DE904CE00F006F86B
:10269000DDF804E0DDE9022304B070472DE9F047DE
:1026A000089D04468C46002B40F083808A421746E2
:1026B00047D9B2FA82F242B1C2F1200024FA00F006
:1026C0009140974040EA010C94404FEA1748230C90
:1026D000BCFBF8F61FFA87FE08FB16C143EA01436C
:1026E00006FB0EF1994209D9FB1806F1FF3080F084
:1026F0001981994240F21681023E3B445B1AA4B212
:10270000B3FBF8F008FB103344EA034400FB0EFE71
:10271000A64509D93C1900F1FF3380F00581A64593
:1027200040F2028102383C4440EA0640A4EB0E0429
:1027300000261DB1D4400023C5E900433146BDE861
:10274000F08702B9FFDEB2FA82F2002A50D1CB1B29
:102750004FEA174E1FFA87F80126B3FBFEFC210C47
:102760000EFB1C3341EA034108FB0CF38B4207D9F3
:1027700079180CF1FF3002D28B4200F2E9808446D6
:10278000C91AA3B2B1FBFEF00EFB101143EA0144DB
:1027900008FB00F8A04507D93C1900F1FF3302D22D
:1027A000A04500F2D9801846A4EB080440EA0C408A
:1027B000BFE78B4209D9002D00F0B1800026C5E9A2
:1027C000000130463146BDE8F087B3FA83F6002EAB
:1027D0004AD18B4202D3824200F2B880841A61EB64
:1027E000030101208C46002DA8D0C5E9004CA5E7C7
:1027F000C2F1200320FA03F6974001FA02F04FEAF3
:10280000174ED9403043030CB1FBFEF61FFA87F890
:102810000EFB161143EA014306FB08F1994204FA44
:1028200002F409D9FB1806F1FF3C80F08D80994233
:1028300040F28A80023E3B445B1A81B2B3FBFEF059
:102840000EFB103341EA034100FB08F38B4207D92A
:10285000791800F1FF3C73D28B4271D902383944A8
:10286000CB1A40EA064678E7C6F1200C03FA06F4D4
:1028700022FA0CF31C4320FA0CF701FA06F34FEA94
:10288000144E21FA0CF11F433B0CB1FBFEF91FFA69
:1028900084F80EFB191143EA014109FB08FA8A4545
:1028A00002FA06F200FA06F308D9611809F1FF30BE
:1028B00048D28A4546D9A9F102092144A1EB0A016F
:1028C000BFB2B1FBFEF00EFB101147EA014700FB5F
:1028D00008F8B84507D9E71900F1FF312ED2B845FD
:1028E0002CD90238274440EA0940A7EB0807A0FB8F
:1028F00002894F45C64649461AD317D05DB1B3EB9E
:102900000E0267EB010707FA0CFCF2404CEA0202E8
:10291000F740C5E9002700263146BDE8F0872E467E
:1029200028460BE70646E9E61846FDE64345E5D2AC
:10293000B8EB020E69EB04010138DFE70846D2E785
:1029400060468DE78146B9E7664675E730464AE757
:10295000ACF1020C394413E702383C4424E700BFD1
:10296000704700BF024B0A460146186800F05EB887
:1029700000000020024B0A460146186800F010B81B
:102980000000002000B5054B83B0014601AA18687D
:1029900000F006F803B05DF804FB00BF0000002063
:1029A0002DE9F0471C4F0E469146804600F0B6FFD9
:1029B0003D68F5B134785CB13D2C18BF344602D186
:1029C00017E03D2B15D014F8013F002BF9D1A41BC3
:1029D000286870B12246314600F000FC28B928680A
:1029E000035D3D2B00EB040A09D055F8040F0028C5
:1029F000F0D1404600F094FF0020BDE8F0873B682E
:102A0000ED1AAD104046C9F8005000F089FF0AF1F8
:102A10000100BDE8F08700BF6400002000B583B06E
:102A200001AAFFF7BDFF03B05DF804FB38B502FB58
:102A300001F42146FDF782FD054618B1224600212A
:102A4000FDF7D6FC284638BD38B5124B1C68A26B82
:102A500005461AB10023C2E9045338BD1820FDF71A
:102A60001DFC0246A06378B1012000210A4B1360CF
:102A7000C2E904010B230948094993810023C2E9F3
:102A80000101C2E9045338BD064B0748422100F05A
:102A900021FF00BF000000200E33CDAB34126DE6E5
:102AA000ECDE0500D87B0108F07B010838B51A4B35
:102AB0001C68A26B92B1146918495369184801FB4C
:102AC00004F100FB0313A4FB0045611C1D4445F108
:102AD000000323F00040C2E9041338BD1820FDF7BD
:102AE000DDFB0246A06388B101200021C2E9040198
:102AF0000A480C4C0C4B0D490D4D146053600B24CF
:102B0000034695609481C2E9041338BD094B0A4815
:102B10004E2100F0DFFE00BF000000202DF45158D0
:102B20002D7F954C0E33CDAB34126DE62E7F954C38
:102B3000ECDE0500D87B0108F07B0108024B0A4659
:102B400001461868FEF78CBF0000002008B430B5BD
:102B5000002A9CB0044635DB4FF4027302910691C3
:102B6000ADF8143020A918D0013A0B460492079210
:102B700001911F9A4FF6FF7502A9ADF8165000F0AB
:102B8000FFFF421C01DA8B232360029B00221A7094
:102B90001CB0BDE8304001B070470B46049207926C
:102BA00001914FF6FF751F9AADF8165002A900F07B
:102BB000E7FF431C01DA8B2323601CB0BDE83040E3
:102BC00001B070478B2202604FF0FF30F5E700BF85
:102BD0000CB430B5204B00299DB01C6837DB4FF496
:102BE000027302900690ADF8143021A819D0013973
:102BF0000346209A0491079101904FF6FF7502A9B0
:102C00002046ADF8165000F0BBFF421C01DA8B23C2
:102C10002360029B00221A701DB0BDE8304002B054
:102C2000704703460491079101904FF6FF75209A73
:102C3000ADF8165002A9204600F0A2FF431C01DAAD
:102C40008B2323601DB0BDE8304002B070478B235A
:102C500023604FF0FF30F5E700000020C9B200F01C
:102C60000303002935D07BB10378002B57D099425C
:102C700052D0431C05E013F8012B002A4DD08A42A4
:102C80004AD09A071846F6D170B441EA0126046882
:102C900046EA064601E050F8044F86EA0405A5F12D
:102CA0000132A4F1013322EA050223EA04031343AB
:102CB00013F0803FEFD0037843B1994202D106E090
:102CC0008B4204D010F8013F002BF9D1184670BC9C
:102CD00070474BB10378FBB1431C02E0027801332B
:102CE000D2B199071846F9D10268A2F1013323EA5B
:102CF000020313F0803F08D150F8042FA2F10133F2
:102D000023EA020313F0803FF6D0037823B110F8D2
:102D1000013F002BFBD170477047104670471846A3
:102D2000704700BF0000000000000000000000002D
:102D30000000000000000000000000000000000093
:102D4000A2EB0300704700BF02780B78012A28BF6E
:102D50009A42F5D16DE9044540EA0104CDE90267E4
:102D60006FF0000C4FEA447212B380EA010414F0D1
:102D7000070F6AD100F0070420F0070004F00305F4
:102D800021F007014FEAC505F0E8042314F0040F11
:102D9000F1E804670CFA05F462EA040266EA040644
:102DA0000AD063EA0403624667EA0407664603E062
:102DB000F0E80423F1E8046782FA4CF582EA06049D
:102DC000A4FA8CF46CBB83FA4CF583EA0705A5FAE8
:102DD0008CF595B950E9022351E9026782FA4CF566
:102DE00082EA0604A4FA8CF483FA4CF583EA070518
:102DF000A5FA8CF52543DBD09CB92DBAB5FA85F43C
:102E000024F0070427FA04F1DDE9026723FA04F34A
:102E100003F0FF0001F0FF01FDE80445A0EB010015
:102E2000704724BAB4FA84F424F0070426FA04F1B3
:102E3000DDE9026722FA04F202F0FF0001F0FF016F
:102E4000FDE80445A0EB0100704714F0030F3CD1EE
:102E500010F0030428D150F8082B51F8083B82FAEF
:102E60004CF582EA0305A5FA8CF55DB950F8042CFF
:102E700051F8043C82FA4CF582EA0305A5FA8CF578
:102E8000002DE8D02DBAB5FA85F424F0070423FA12
:102E900004F122FA04F202F0FF0001F0FF01FDE864
:102EA0000445A0EB010070474FEAC40420F0030082
:102EB00050F8082B21F0030151F8083B0CFA04F4F8
:102EC00062EA040263EA0403C9E710F003041AD0BB
:102ED000A1EB040120F00300E40750F8042B06D016
:102EE0000FD28B785FFAA2F4E41A06D12BB1CB781B
:102EF0005FFAB2F4E41A00D11BB920465DF8104B1A
:102F0000704701F1040150F8042BCC0721F00301B4
:102F100051F8043B48D824D222F07F4482FA4CF581
:102F200094EA1325A5FA8CF50AD165B951F8043B4A
:102F300084EA0204B4EB036F0ED150F8042BEBE7E4
:102F40004FEA132355E035F07F454DD10878FDE871
:102F50000445C0F1000070474FEA126203F0FF031E
:102F600047E002EA1C4482FA4CF594EA1345A5FABC
:102F70008CF50AD165B951F8043B84EA0204B4EB3C
:102F8000034F0CD150F8042BEBE74FEA134330E02A
:102F900015EA1C4528D10B884FEA124229E04FEA76
:102FA000124203EA1C4324E002F0FF0482FA4CF5CB
:102FB00094EA1365A5FA8CF50AD165B951F8043B7A
:102FC00084EA0204B4EB032F09D150F8042BEBE799
:102FD0004FEA13630DE015F0FF0F05D10B684FEAC0
:102FE000122223F07F4304E04FF00000FDE8044587
:102FF000704712BA1BBA82FA4CF482EA0304A4FAAC
:103000008CF5B5FA85F402FA04F203FA04F34FEAF8
:103010001260FDE80445A0EB1360704780EA0102EE
:10302000844612F0030F4FD111F0030F32D14DF847
:10303000044D11F0040F51F8043B0BD0A3F1013201
:103040009A4312F0803F04BF4CF8043B51F8043B14
:1030500016D100BF51F8044BA3F101329A4312F08C
:10306000803FA4F101320BD14CF8043BA24312F093
:10307000803F04BF51F8043B4CF8044BEAD0234690
:103080000CF8013B13F0FF0F4FEA3323F8D15DF842
:10309000044B704711F0010F06D011F8012B0CF80A
:1030A000012B002A08BF704711F0020FBFD031F882
:1030B000022B12F0FF0F16BF2CF8022B8CF8002009
:1030C00012F47F4FB3D1704711F8012B0CF8012B8C
:1030D000002AF9D1704700BF000000000000000086
:1030E00000000000000000000000000000000000E0
:1030F00000000000000000000000000000000000D0
:1031000090F800F06DE9024520F007016FF0000C27
:1031100010F0070491F820F040F049804FF00004CF
:103120006FF00700D1E9002391F840F000F10800AA
:1031300082FA4CF2A4FA8CF283FA4CF3A2FA8CF3E2
:103140004BBBD1E9022382FA4CF200F10800A4FA49
:103150008CF283FA4CF3A2FA8CF3E3B9D1E904239D
:1031600082FA4CF200F10800A4FA8CF283FA4CF3D4
:10317000A2FA8CF37BB9D1E9062301F1200182FA8E
:103180004CF200F10800A4FA8CF283FA4CF3A2FA94
:103190008CF3002BC6D0002A04BF04301A4612BAA2
:1031A000B2FA82F2FDE8024500EBD2007047D1E9A5
:1031B000002304F00305C4F100004FEAC50514F034
:1031C000040F91F840F00CFA05F562EA05021CBF05
:1031D00063EA050362464FF00004A9E7002A46D0DF
:1031E00040EA010313F00303F0B425D1032A23D9E5
:1031F00004680D68AC423CD1043A35D0A4F10135E5
:1032000025EA040414F0803F2ED1071D0D1D0DE0AA
:1032100057F8043B0E68A3F10134B34224EA0304D7
:1032200027D1043A20D014F0803F1DD1032A29462B
:10323000384605F10405EBD803780D789D4202F17C
:10324000FF360ED186B17BB1044602E082180BD066
:1032500053B114F8013F11F8015FAB42A6EB040231
:10326000F4D0581BF0BC70470020F0BC70471046EB
:10327000704703780D789D4202F1FF36E3D0F0E706
:103280002DE9F04F0124254688461646AE462A46CB
:10329000ADF21C4D07461C4600214FF0FF35531878
:1032A0009C4206EB05000ED9805C16F803C08445ED
:1032B00080F0CC8019460122A3EB050E53189C42E6
:1032C00006EB0500F0D8CDF80CE04FF0010E724689
:1032D00000214FF0FF3053189C4206EB000C0FD931
:1032E0001CF802C016F80390E14540F2B68019467A
:1032F0000122A3EB000E53189C4206EB000CEFD802
:103300006B1C01309842029328BFCDE9020E05AB39
:103310000DF2144243F8044F9342FBD1631E009315
:10332000002C00F01681009B06AD721E98190195C5
:1033300012F8011FD34323443344824245F821301D
:10334000F6D1DDE902233046F11800F00DFB00282C
:1033500040F09680029B013B0593F318824681461C
:10336000049307EB090E009B019A1EF8033052F8F4
:103370002330EBB1BAF1000F03D0039A934238BF68
:10338000A31A99444FF0000AA8EB04034B45E8D276
:1033900007EB080044F4006100F02CFD8044A8EB2A
:1033A00004034B45DDD200200DF21C4DBDE8F08F2B
:1033B000029B534538BF53461D46009B9D4218D281
:1033C00005EB0902715DB85C88423A4406EB0503DF
:1033D00034D1A4F1020CB444C6F1010B05E013F89A
:1033E000010F12F8011F884228D19C450BEB030501
:1033F000F5D1029B9A4580F0A980059B049A4B4425
:103400001178FA5C91423B4440F0A0800AEB090538
:103410003D44049A05E012F8010D13F8011D88429D
:1034200003D1AB42A3EB0E0CF5D10AF1010AE24540
:103430007DD8039B9944A4EB030AA5E7029BC3F143
:1034400001039944A9444FF0000A9DE70CD04FF0C6
:10345000010E0D467246714421E70BD04FF0010E6C
:1034600008467246714436E7724512BF013219466A
:10347000012214E7724512BF0132194601222AE7E0
:10348000029AA31A934238BF1346511E0133059383
:10349000731804910393002506EB020B07EB050E4E
:1034A000009A01991EF8023051F8233083B11D446F
:1034B000A8EB04039D42F1D907EB080044F4006136
:1034C00000F098FC8044A8EB04039D42E6D96AE72B
:1034D000029B934217D2EA189BF80030B95C9942DC
:1034E0003A4429D1A4F1020CB4445B46C6F1010967
:1034F00005E013F8010F12F8011F88421ED1634541
:1035000009EB030AF5D1049B5A1C10D0EA18039B5F
:10351000B95C1B7899423A4416D1039B05E013F835
:10352000010D12F8011D88420ED1B342F7D1704649
:103530000DF21C4DBDE8F08FDDF808A0029BC3F131
:1035400001031D445544B3E7059BB0E7DDF808C00F
:103550006BE706AB0193F4E62DE9F0410E460978DE
:1035600090B00446002958D07278002A00F08D806F
:10357000B078002855D0F378002B00F08D80337997
:10358000002B5FD03046FFF7BBFD804640F4007152
:10359000204600F02FFC804572D8B8F1FE0F00F2F3
:1035A0009280A0EB0807402208F1010168462744F9
:1035B000FCF71EFFB8F1000F10D0731E03EB0805D7
:1035C0005FFA88F013F8012F10A902F03F020A44B5
:1035D000F11A0144AB4202F8401CF3D1013C10AA9D
:1035E00014F8083003F03F03134413F8403C1C4424
:1035F000A74203D238E02C44A74235D314F8085030
:1036000010AB05F03F051D4442463146204615F8F3
:10361000405C00F0A9F90028EDD1204610B0BDE8CB
:10362000F081237842EA014253B3601C617800E0E4
:10363000204641EA0343441C11B39A424178F7D132
:10364000441EEAE72278DAB1306800BA02E0834229
:1036500008D00C4642EA03236278611C002AF6D1A6
:1036600083420DD1033CD8E717F8083007EB080078
:1036700033B14FF4006100F0BDFB0744A742ADD267
:103680000024204610B0BDE8F081FFF7E7FA0446B9
:10369000204610B0BDE8F0811204237842EA0162AE
:1036A00042EA0022002BEBD01B02601C617800E094
:1036B00020460B431B02441C0029E1D09A4241786A
:1036C000F6D1841EA9E70146434620463246FFF75D
:1036D000D7FD0446A1E700BF2DE9F0470F464C4D4A
:1036E00000E06746BC461CF8014B2E5D16F008064C
:1036F000F7D12D2C58D02B2C0ABF9CF80050254612
:1037000007F1020CF3B3102B54D04FF0FF38B8FB85
:10371000F3F803FB08FA6FEA0A0A99460027BE4647
:1037200007E0C64513D828D009FB0E4E01271CF828
:10373000015BA5F13004092C05D9A5F14104192C30
:1037400008D8A5F13704A3420CDD002FE9DA4FF0C9
:10375000FF37ECE7A5F16104192C03D8A5F1570454
:10376000A342F2DC002F16DB0EB1CEF1000E0AB13F
:10377000BFB911607046BDE8F0875445D4DD4FF005
:10378000FF37D4E7302D29D00A2399464FF0050A98
:10379000DFF88080C2E7222303604FF0FF3E002A5B
:1037A000E8D00CF1FF31E4E79CF80050012607F166
:1037B000020CA7E7302D24D19CF8004004F0DF0470
:1037C000582C18D14FF010099CF801504B464FF07F
:1037D0000F0A0CF1020C6FF070489FE79CF8003064
:1037E00003F0DF03582BEDD0082399464FF0070A6A
:1037F0006FF0604892E799466FF070484FF00F0AFB
:103800008CE74FF00F0A6FF07048994686E700BFCB
:1038100019700108999999195EE700BF10B4044C1A
:1038200013460A46014620685DF8044B54E700BF82
:103830000000002010B4044C13460A4601462068DC
:103840005DF8044B48E700BF0000002070B5141E6F
:103850009AB005462BDB1A464FF40273009104918F
:10386000ADF80C3013D0013C4FF6FF761E9B02944E
:1038700069460594ADF80E6000F082F9421C01DA49
:103880008B232B60009B00221A701AB070BD1E9B08
:1038900002944FF6FF7669460594ADF80E6000F08D
:1038A0006FF9431C01DA8B232B601AB070BD8B2398
:1038B00003604FF0FF30F8E710B5054C82B000937D
:1038C00013460A4601462068FFF7C0FF02B010BD4C
:1038D0000000002000B50A4C2668054685B01C464D
:1038E000F06852B1074B0091CDE9013206492B46F1
:1038F000224600F025F800F09FFA044B1A46F2E742
:1039000000000020247C0108347C0108307C010880
:1039100008B513460022FFF7DDFF00BF704700BF68
:10392000704700BF0CB400B583B004AB53F8042B50
:103930000193FDF74DF803B05DF804EB02B070475A
:103940000EB410B583B005AB064C53F8042B0193AD
:1039500001462068FDF73CF803B0BDE8104003B015
:10396000704700BF00000020032A70B412D940EA5B
:103970000105AD0704460B4620D11946204653F8F1
:10398000045B54F8046BAE4218D1043A032A204673
:103990001946F2D8541E72B103780A789A4208BFC9
:1039A000241806D00CE010F8013F11F8012F9342C3
:1039B00006D1A042F7D1002070BC7047541EEBE73F
:1039C000981A70BC704700BF2DE9F0478E681D46FD
:1039D000AE420C460B68174636D88046888910F4EC
:1039E000906F0ED1354618462A463946FDF7D0FF6E
:1039F000A2682368961B2B44A66023600020BDE8C4
:103A0000F087D1E9041606EB4606A3EB010906EBA5
:103A1000D6766B1C76104B44B342324684BF1E46AA
:103A20003246430512D511464046FCF787FD8246D3
:103A300000B34A462169FCF741FCA38923F4906353
:103A400043F08003A38106E02E46CCE74046FEF714
:103A500007F8824650B1A6EB09020AEB090366613A
:103A6000C4F810A02360A2602E46BCE7216940463E
:103A7000FCF70EFD0C23C8F80030A38943F0400387
:103A8000A3814FF0FF30BAE72DE9F04F936883B080
:103A90009046002B6DD017688D6882460C460868EA
:103AA000083743E0A38913F4906F2ED0D4E90415AE
:103AB00005EB4505A0EB010B05EBD5750BEB0600FF
:103AC0006D100130A8422A4684BF05462A465B0590
:103AD00036D511465046FCF731FD00283AD05A46FB
:103AE00021690190FCF7EAFBA289019B22F4906214
:103AF00042F08002A281A5EB0B0203EB0B00656193
:103B000023612060A2603546B3465A464946FDF718
:103B10003FFFD8F80830A2682068551B58449E1B08
:103B2000A5602060C8F808601EB3083757E9029600
:103B3000AB46002EF9D0AE42B4D23546B346E4E7E8
:103B40005046FDF78DFF03460028D4D12169504629
:103B5000FCF79EFC0C23CAF80030A389002243F036
:103B600040034FF0FF30A381C8E9012203B0BDE854
:103B7000F08F0020C8F8040003B0BDE8F08F00BF4C
:103B80002DE9F04F90468A899FB014068B4602902B
:103B900003D50A69002A00F00B81059330238DF8C4
:103BA000323098F800308E4E002120220B918DF893
:103BB00031200127002B00F08480252B00F0F680B7
:103BC000454603E0252B00F0868025466B786C1C6B
:103BD000002BF7D1B4EB080A73D04246534659463E
:103BE0000298FFF7F1FE01306BD00B9B6A785344CB
:103BF0000B93002A65D000234FF0FF320134069367
:103C0000CDE908338DF85B301C93079205E0069AE6
:103C100007FA03F313432C4606932546052215F8AD
:103C2000011B3046FDF764FEAA46831B0028EED137
:103C3000069BD90644BF20228DF85B2021781A0705
:103C400044BF2B228DF85B202A2948D1059A1168A0
:103C50000432002905927EDB09916178A51C2E298A
:103C600056D0604C03222046FDF742FE002868D063
:103C7000001B069B402404FA00F00343069305F161
:103C80000108297858488DF830100622FDF730FEDB
:103C9000002866D0554B002B56D005AB00935A46F2
:103CA000534B029806A9AFF300808146B9F1FF3F5C
:103CB00007D00B9B4B440B9398F80030002B7FF4FC
:103CC0007CAFBBF80C305B0654BF0B984FF0FF3055
:103CD0001FB0BDE8F08FB4EB080A8CD07DE7A1F1EE
:103CE0003002092A88BFA246B9D8099B01E02C46B8
:103CF0000135297803EB830302EB4303A1F1300282
:103D0000092AAA46F3D92E2904F102050993A8D15C
:103D10009AF801102A292ED1059B9AF802101A68E8
:103D200007920433002A05930AF103050AF10203FE
:103D300037DB2C4C032220469A46FDF7D9FD00289C
:103D400096D1A84655469CE7059B073323F0070309
:103D500008330593ADE7494243F002030991069306
:103D60007BE705AB00935A46214B029806A9FDF765
:103D700033F881469AE7A1F130020023092A07931C
:103D800001D923E05546697803EB830302EB430333
:103D9000A1F13002092A05F1010AF3D9023507938E
:103DA0005FE74FF0FF329A4607925AE7444622E710
:103DB00040210393FCF7C2FB039BCBF80000CBF838
:103DC000100030B14022CBF81420E6E6AA460135B7
:103DD00047E7029A0C2313604FF0FF3078E700BFEB
:103DE0002C720108347201083872010800000000CA
:103DF000C9390008C9B10278CAB1431C01449942CB
:103E00001A4616D010B41478013334B199421A46C8
:103E100007D014780133002CF8D1101A5DF8044B48
:103E20007047081A5DF8044B704708467047104603
:103E30007047081A704700BF08B5062000F08AF8DE
:103E4000012000F0A1FD00BF10B580210446FCF761
:103E500075FB606440B1031F00227C3043F8042FDF
:103E60008342FBD1002010BD4FF0FF3010BD00BFDA
:103E7000436C0BB100207047E6E700BF1F2970B507
:103E8000054608D8436C16460C464BB153F824003F
:103E900043F8246070BD162202604FF0FF3070BD01
:103EA000FFF7D2FF08B96B6CF0E74FF0FF3070BD41
:103EB0001F2938B521D8426C05460C466AB152F824
:103EC000213053B1012B16D0591C10D000252046AB
:103ED00042F824509847284638BD284600F070F82C
:103EE000224601462846BDE8384000F055B8162362
:103EF0000360012038BD002038BD162303604FF059
:103F0000FF3038BD1F2921D838B5436C05460C4613
:103F100083B153F8242003EB84034AB1511C10D021
:103F2000012A0CD0002520461D609047284638BD48
:103F3000012038BDFFF788FF28B96B6CE9E7032043
:103F400038BD022038BD4FF0FF3038BD4FF0FF3094
:103F5000704700BF024B01461868FFF7A9BF00BFBA
:103F600000000020024B0A4601461868FFF786BF92
:103F700000000020034B1868436C0BB10020704711
:103F800062E700BF00000020024B01461868FFF7FF
:103F9000B9BF00BF0000002038B50B46074C0546EE
:103FA000114618460023236000F0E6FC431C00D0B5
:103FB00038BD2368002BFBD02B6038BDB0C9002072
:103FC00000F0D8BC10B40268214B9A421FD002689E
:103FD000204B9A423AD05DF8044B70471E4CE25C8D
:103FE00007EE902A1D4A02EB8301F8EE677AC1EDD5
:103FF000007A191D645C07EE904A02EB8102F8EE2C
:10400000677AC2ED007A0133032BE7DDDFE7002397
:10401000FAE71348C25C07EE902A104A03F1080140
:1040200002EB8101F8EE677AC1ED007A191D415C5F
:1040300007EE901A03F10C0102EB8102F8EE677AA9
:10404000C2ED007A0133032BE3DDC4E70023FAE776
:104050000010014000140140D09000208C900020FE
:104060008891002010B586B0044602681C4B9A4225
:1040700005D022681B4B9A4219D006B010BD002310
:10408000052B0BD8184A02EB8302116806AA02EB33
:10409000830242F8181C0133DBB2F1E7134BC3F87B
:1040A00000D018226946124804F0F0F9E1E7002335
:1040B000052B0CD8991D0C4A02EB8102116806AA47
:1040C00002EB830242F8181C0133DBB2F0E7094B24
:1040D000C3F800D018226946074804F0D7F9CCE7A6
:1040E0000010014000140140249100205491002050
:1040F00008C50020CC9000204CC5002008B50268FF
:10410000034B9A4200D008BD03F074F8FBE700BFF0
:104110000000014072B6FEE700B595B030220021E4
:1041200008A8FCF765F9002303930493059306930D
:1041300007930193214A116C41F080511164126C74
:1041400002F080520192019A02931D4B1A6842F4C8
:1041500080421A601B6803F480430293029B012390
:1041600008934FF48033099302230E934FF4800297
:104170000F92082210924FF4A87211921293072303
:10418000139308A802F012F998B90F23039302239E
:104190000493002305934FF4A05306934FF48053E8
:1041A0000793052103A802F063FB20B915B05DF861
:1041B00004FBFFF7AFFFFFF7ADFF00BF0038024081
:1041C0000070004030B58DB002F0FAFFFFF7A4FF99
:1041D00000F062F800F008F900F052F900F028FA57
:1041E00000F06CF900F00AFA00F03CFA06F0F2FB7D
:1041F00020222149214804F0A7FC00230AE0204A9C
:1042000002EB830211680CAA02EB830242F8181C2D
:104210000133DBB2052BF2D906A91A4B196018221B
:10422000164804F033F900230BE0991D144A02EB01
:10423000810211680CAA02EB830242F8301C0133A0
:10424000DBB2052BF1D9104DC5F800D00F4C202260
:104250000F49204604F078FC20222968204604F00B
:1042600015F905F06DFF00F0A3F805F07BFF094894
:1042700006F009FDFBE700BFD090002008C5002034
:104280002491002054910020CC9000204CC50020A7
:104290008891002068C90020F0B58BB000240594F7
:1042A00006940794089409940094364B1A6B42F0D4
:1042B00004021A631A6B02F004020092009A01943D
:1042C0001A6B42F080021A631A6B02F080020192AC
:1042D000019A02941A6B42F001021A631A6B02F0FF
:1042E00001020292029A03941A6B42F002021A63CC
:1042F0001A6B02F002020392039A04941A6B42F0C2
:1043000008021A631B6B03F008030493049B1E4FFF
:1043100001221146384602F089FC1C4E22464FF419
:104320007041304602F082FC012505950695079400
:10433000089405A9384602F08FFB05954FF49013B9
:104340000693079405A9124802F086FB04230593FF
:104350000694079405A90F4802F07EFB4FF47043C2
:10436000059306950794089405A9304602F074FB5E
:10437000202305930694079405A9304602F06CFBB0
:104380000BB0F0BD0038024000080240000C0240B3
:10439000000002400004024008B500F041FD08BDE5
:1043A00008B501F0F1F90A2005F056FFF9E7000021
:1043B00008B5074A0021074805F0F0FE064B1860D3
:1043C000064A0021064805F0E9FE064B186008BDC4
:1043D0003871010899430008309200205C7101088F
:1043E000A14300081CC2002010B582B00024009434
:1043F000224B1A6B42F400121A631A6B02F4001279
:104400000092009A01941A6B42F480021A631B6BAB
:1044100003F480030193019B22460521102002F042
:104420008DFE102002F0BEFE22460521112002F072
:1044300085FE112002F0B6FE22460521392002F049
:104440007DFE392002F0AEFE224605213A2002F020
:1044500075FE3A2002F0A6FE22460521452002F014
:104460006DFE452002F09EFE22460521462002F008
:1044700065FE462002F096FE02B010BD00380240F4
:1044800008B50B480B4B03600B4B43600023836064
:10449000C3604FF48042026143618361C361036280
:1044A00003F070F900B908BDFFF734FEFBE700BF69
:1044B00074C2002000540040A086010008B50B48DB
:1044C0000B4B03600B4B436000238360C3604FF4CE
:1044D0008042026143618361C361036203F052F968
:1044E00000B908BDFFF716FEFBE700BF20C20020A1
:1044F000005C0040A08601002DE9F0418AB0002355
:10450000059306930793089309930368354A9342EA
:1045100005D0354A934227D00AB0BDE8F081002586
:104520000095324C236B43F002032363236B03F0AB
:1045300002030093009B4FF44073059312230693EC
:104540000795032308930423099305A9284802F03B
:1045500083FA0195236C43F400132364236C03F462
:1045600000130193019BD7E7002502951F4C236B95
:1045700043F004032363236B03F004030293029BC1
:104580000395236B43F001032363236B03F00103C3
:104590000393039B4FF4007305934FF01208CDF87B
:1045A00018800795032708970426099605A911483E
:1045B00002F052FA4FF480730593CDF818800795F6
:1045C0000897099605A90C4802F046FA0495236C51
:1045D00043F400032364236C03F400030493049B5B
:1045E0009AE700BF00540040005C004000380240E1
:1045F00000040240000802400000024008B50A48DA
:104600000A4B03604FF4E133436000238360C360CF
:1046100003610C2242618361C36103F007FF00B9AB
:1046200008BDFFF777FDFBE708C50020001001403B
:1046300008B50A480A4B03604FF4E1334360002396
:104640008360C36003610C2242618361C36103F034
:10465000EDFE00B908BDFFF75DFDFBE790C500204A
:104660000044004008B50A480A4B03604FF4E133A8
:10467000436000238360C36003610C224261836155
:10468000C36103F0D3FE00B908BDFFF743FDFBE7AC
:104690004CC500200014014030B58DB00446002305
:1046A0000793089309930A930B9303689E4A9342D6
:1046B00008D09E4A93426BD09D4A934200F0CE8030
:1046C0000DB030BD002501959A4B5A6C42F0100296
:1046D0005A645A6C02F010020192019A02951A6B08
:1046E00042F002021A631B6B03F002030293029B67
:1046F000C023079302230893099503230A930723F2
:104700000B9307A98C4802F0A7F98C488C4B0360E7
:104710004FF0006343608560C5604FF480630361C0
:10472000456185614FF48073C3614FF44033036288
:10473000456202F00BFB28BB804BA3639C6381485E
:10474000814B03604FF0006343604023836000238C
:10475000C3604FF48062026143618361C3614FF4BF
:1047600040320262436202F0F1FA70B9754B636342
:104770009C6300220521252002F0E0FC252002F0A8
:1047800011FD9DE7FFF7C6FCD6E7FFF7C3FCEDE799
:1047900000250395674B1A6C42F400321A641A6CB8
:1047A00002F400320392039A04951A6B42F001025C
:1047B0001A631B6B03F001030493049B0C23079300
:1047C00002230893099503230A9307230B9307A950
:1047D0005E4802F041F95E485E4B03604FF00063B3
:1047E00043608560C5604FF4806303614561856106
:1047F0004FF48073C3614FF440330362456202F0AB
:10480000A5FA28BB524BA3639C635348534B0360E8
:104810004FF000634360402383600023C3604FF484
:104820008062026143618361C3614FF4403202627E
:10483000436202F08BFA70B9474B63639C630022BA
:104840000521262002F07AFC262002F0ABFC37E797
:10485000FFF760FCD6E7FFF75DFCEDE70025059567
:10486000344B5A6C42F020025A645A6C02F0200217
:104870000592059A06951A6B42F004021A631B6BA7
:1048800003F004030693069BC023079302230893B7
:10489000099503230A9308230B9307A9304802F0D4
:1048A000DBF83048304B03604FF020634360856095
:1048B000C5604FF480630361456185614FF4807387
:1048C000C3614FF440330362456202F03FFA28BBF4
:1048D000244BA3639C632548254B03604FF0206362
:1048E0004360402383600023C3604FF48062026111
:1048F00043618361C3614FF440320262436202F05C
:1049000025FA70B9194B63639C6300220521472087
:1049100002F014FC472002F045FCD1E6FFF7FAFB59
:10492000D6E7FFF7F7FBEDE7001001400044004039
:1049300000140140003802400004024048C4002036
:104940004064024088C30020B86402400000024076
:10495000C8C2002088600240A8C40020A0600240B5
:104960000008024028C3002028640240E8C3002059
:10497000A06402400120704708B5FBF765FC1623D0
:1049800003604FF0FF3008BD08B54FF0FF31FFF76F
:10499000F3FFFEE770B50C4616460025B54207DA70
:1049A000AFF30080214601F8010B01350C46F5E715
:1049B000304670BD70B50C4616460025B54205DA86
:1049C00014F8010BAFF300800135F7E7304670BDF6
:1049D00008B503460D4A12685AB10C4A10680344E0
:1049E0000B4A11780B4A521A934206D8074A1360B1
:1049F00008BD064A08491160EFE700BEFBF724FC3A
:104A00000C2303604FF0FF30F2E700BF5801002095
:104A10000004000000000220801301204FF0FF304E
:104A200070474FF400534B600020704701207047DF
:104A300000207047FEE7FEE7FEE7FEE7FEE770476F
:104A400008B5024802F07AFA08BD00BFC8C20020CB
:104A500008B5024802F072FA08BD00BFA8C40020E1
:104A600008B5024803F096FA08BD00BFD4C500207F
:104A700008B5024803F07CFE08BD00BF08C5002051
:104A800008B5024803F074FE08BD00BF90C50020C1
:104A900008B5024802F052FA08BD00BF28C3002042
:104AA00008B5024802F04AFA08BD00BF48C4002019
:104AB00008B5024801F055FA08BD00BF20C6002025
:104AC00008B5024802F03AFA08BD00BFE8C300206A
:104AD00008B5024802F032FA08BD00BF88C30020C2
:104AE00008B5024803F044FE08BD00BF4CC50020D5
:104AF00000B583B0002200920D4B596C41F4804107
:104B00005964596C01F48041009100990192196C2B
:104B100041F0805119641B6C03F080530193019B99
:104B20000F216FF0010002F009FB03B05DF804FBF8
:104B30000038024010B588B001460022192002F06A
:104B4000FDFA192002F02EFB00240194144B5A6C3C
:104B500042F001025A645B6C03F001030193019B74
:104B600002A903A801F05AFF01F048FF43000D48D5
:104B7000A0FB03239B0C013B0B480C4A026040F254
:104B8000E732C26043600461846003F025FB10B12A
:104B9000012008B010BD044803F0B4F9F9E700BFE4
:104BA0000038024083DE1B43D4C5002000000140D2
:104BB00010B5044601224FF480510B4802F036F83C
:104BC00000230B2B09DC226902EB83021168074AE0
:104BD00002EB830211600133F3E700224FF48051AE
:104BE000014802F023F810BD000C0240249100207F
:104BF00070B506460024A64214DD0D4D01224FF487
:104C00008041284602F012F8642002F005FB0022E1
:104C10004FF48041284602F009F8642002F0FCFAC3
:104C20000134E8E74FF47A7002F0F6FA70BD00BF85
:104C3000000C024000B589B0FFF7FAFC104B01935D
:104C4000104B0093104B114A1149012007F02EFC24
:104C500003A807F0ABF90F4B03930F4B04930F4BD3
:104C600005930F4B069303A807F0AEF910B109B0F6
:104C70005DF804FB35210B48FBF7DCFCF7E700BFD0
:104C800089B200084BB200083DB2000825B2000806
:104C900090C50020B9B00008DDB00008FDB00008E4
:104CA0003DB100088071010870B586B0134E6846AA
:104CB00007F0AAF935466C460FCC0FC523682B6068
:104CC0003346002211460E4807F014F870B1012057
:104CD000FFF78EFF0A4C204607F05CF8074B0022D6
:104CE0001146204607F006F80028F0D1044B054A8B
:104CF0000549064807F080F806B070BD5C920020B8
:104D0000D0C10020307C0108A87101083492002035
:104D100038B508F0ABF80246134B1449144807F0B5
:104D2000A7F840B14FF48041124801F085FF64209C
:104D300005F092FAF6E704460F4D6423AB614FF499
:104D4000C870FBF7ABFA28610C236B6106E00A4BD5
:104D50001B6903EB840300221A600134064B5B6974
:104D6000A342F4D838BD00BFB871010834920020C6
:104D700018C20020000C0240B0C1002038B508F075
:104D800075F802461F4B2049204807F0A5F840B1AE
:104D90004FF480411E4801F04FFF642005F05CFA9B
:104DA000F6E71C4C6423A3611B4B98698000FBF75A
:104DB00075FA20610C236361184800F037FA002867
:104DC00014BF012400241AD138BD144800F02EFA73
:104DD000041E18BF01240E4D01224FF480412846C5
:104DE00001F024FF642002F017FA00224FF4804102
:104DF000284601F01BFF4FF47A7002F00DFA002CE8
:104E0000E3D1E1E7D07101083492002058920020EC
:104E1000000C02403C920020B0C1002020C20020C3
:104E200010B5A4B0FFF706FFFFF73EFFFFF770FFD6
:104E3000FFF7A4FF2C4B009329A3D3E900232B49B0
:104E400023A807F07DF840B14FF48041284801F0D5
:104E5000F3FE642005F000FAF6E7264C02A806F0FF
:104E6000AFFC802202A92046FBF728FA224B02223F
:104E70002249204606F0B0FC40B14FF480411C4866
:104E800001F0DAFE642005F0E7F9F6E723A91948F6
:104E900006F050FD40B14FF48041154801F0CCFEC2
:104EA000642005F0D9F9F6E700230093144B154A66
:104EB0001549104806F004FD40B14FF480410C48FC
:104EC00001F0BAFE642005F0C7F9F6E7094806F0DC
:104ED000D7FE0028FAD024B010BD00BFAFF3008089
:104EE000404B4C00000000000D4F0008D0C10020D6
:104EF000000C0240B09100205C920020D8C100203C
:104F0000B14B00083C9200205892002008B50023C5
:104F1000104A52699A420AD90E4A126902EB830278
:104F20000D4901EB8301096811600133F0E70022AC
:104F300008490A4806F02CFB28B94FF400410848FC
:104F400001F07AFE08BD0220FFF752FEFFF768FF6E
:104F5000F3E700BFB0C100202491002018C2002058
:104F6000000C024070B586B00D46164602B101260F
:104F700084B20A230293012301930DF117020092D8
:104F8000224680211348006802F048FE10B101203B
:104F900006B070BD012303FA05F161F07F029DF8B0
:104FA000171021EA020149B21E4006FA05F50D4329
:104FB0008DF817500A22029201930DF11702009208
:104FC000224680210348006802F076FD0028DFD0E9
:104FD0000120DDE71CC6002000B585B006238DF852
:104FE0000F300A23009301230DF10F020021044822
:104FF000006802F0A5FC00B1012005B05DF804FBDB
:105000001CC6002008B5024604210020FFF7AAFFB5
:1050100008BD08B5024607210020FFF7A3FF08BD21
:1050200008B5024605210020FFF79CFF08BD0000DF
:1050300010B586B040F2F55398421CD903238DF881
:1050400017300120FFF7DEFF0A23029301240194A9
:105050000DF1170300932346FE22802120480068AB
:1050600002F02AFD0020FFF7CDFF2046FFF7D1FF19
:10507000002006B010BD182803D8FF238DF8173084
:10508000DFE707EE900AF8EE677A17EE900AFCF772
:105090003BFF0022134BFCF78FFF02460B460EA18D
:1050A000D1E90001FDF7B2F800220F4BFCF7CCFD6F
:1050B000FDF73CFAFCF728FF00220C4BFCF7C6FD7D
:1050C00041EC100BFCF738FD51EC100BFDF70EFA1C
:1050D0008DF81700B5E700BF0000000084D77741C6
:1050E0001CC600200000B0400000F03F0000E03F80
:1050F00000B587B08000C0B206308DF81410090AE0
:105100008DF815108DF81620120A8DF817200A2335
:1051100002930423019305AB0093012300F0FE02E8
:1051200080210548006802F0C7FC10B907B05DF89F
:1051300004FB0120FAE700BF1CC6002008B5B1F54A
:10514000805F01D340F6FF71C2B159B140F6FF73E1
:1051500099420DD0C1F57F610F318AB20021FFF76E
:10516000C7FF08BD00224FF48051FFF7C1FFF8E7E9
:105170004FF480520021FFF7BBFFF2E740F6FF73C8
:10518000994205D051B94FF48052FFF7B1FFE8E7DB
:1051900000224FF48051FFF7ABFFE2E70A460021FF
:1051A000FFF7A6FFDDE7000010B50446B5EEC00A24
:1051B000F1EE10FA28D4DFED1A7AB4EEE70AF1EE38
:1051C00010FA01DDB0EE670A10EE100AFCF79CFE43
:1051D0000FA3D3E90023FCF7EFFE0FA3D3E90023CD
:1051E000FDF714F800220F4BFCF730FDFDF79EF998
:1051F00007EE900AFCEEE77A002217EE903A99B299
:105200002046FFF79BFF10BD9FED070AD3E700BFC5
:105210000000000000A079400000000000E07040A5
:1052200000008743000059400000000010B504460C
:10523000074B1860FFF7D0FE2F20FFF7F9FE012083
:10524000FFF7EEFE236C0BB9002010BD0120FCE738
:105250001CC60020000000002DE9F04F87B0444C30
:105260002068FCF751FE804689466068FCF74CFEDA
:1052700082468B46CDE902ABA068FCF745FE0446AA
:105280000D46CDE90445464609F10047CDE90067E2
:105290000022384B40463946FDF71EF900283AD027
:1052A0000022344BCDE900230022334B50465946AF
:1052B000FDF7F4F800283BD000222F4BCDE9022364
:1052C00000222E4B20462946FDF7E8F800283ED064
:1052D00000222A4BCDE904230022294BDDE90001FD
:1052E000FCF7B4FCFDF722F9264C20600022264B87
:1052F000DDE90201FCF7AAFCFDF718F96060002265
:105300000023DDE90401FCF7A1FCFDF70FF9A06023
:1053100007B0BDE8F08F00221C4B40463946FDF730
:10532000BDF80028C0D00022184BCDE90023BBE710
:105330000DA3D3E9002350465946FDF7CDF80028C8
:10534000BED009A3D3E90023CDE90223B8E70022A8
:105350000F4B20462946FDF7BFF80028BCD000229D
:105360000B4BCDE90423B7E70000000000206740A5
:105370002491002000805640008051C000002E4043
:1053800000405C40F090002000405040008056C03B
:1053900000805B40000000002DE9F04F87B04A4CD0
:1053A000E068FCF7B1FD804689462069FCF7ACFD5A
:1053B00082468B46CDE902AB6069FCF7A5FD044649
:1053C0000D46CDE90445464609F10047CDE90067A1
:1053D00000223E4B40463946FDF77EF800283CD07F
:1053E00000223A4BCDE900230022394B5046594662
:1053F000FDF754F800283DD00022354BCDE90223BB
:105400000022344B20462946FDF748F8002840D0BA
:105410000022304BCDE90423DDE9002300202E4992
:10542000FCF712FCFDF782F82C4CE060DDE902236A
:105430001FA1D1E90001FCF707FCFDF777F8206117
:10544000DDE904231CA1D1E90001FCF7FDFBFDF718
:105450006DF8606107B0BDE8F08F0022204B404638
:105460003946FDF71BF80028BED000221C4BCDE9C1
:105470000023B9E712A3D3E9002350465946FDF7AC
:105480002BF80028BCD00EA3D3E90023CDE90223DA
:10549000B6E70022134B20462946FDF71DF80028E9
:1054A000BAD000220F4BCDE90423B5E7AFF300805B
:1054B0000000000000A068400000000000207240D2
:1054C000000000000020674024910020008056402A
:1054D000008051C000002E4000005D40F090002090
:1054E000008056C000805B402DE9F04F87B0484CEB
:1054F000A069FCF709FD80468946E069FCF704FDD8
:1055000082468B46CDE902AB206AFCF7FDFC0446DF
:105510000D46CDE90445464609F10047CDE900674F
:1055200000223C4B40463946FCF7D6FF00283BD0D2
:105530000022384BCDE900230022374B5046594614
:10554000FCF7ACFF00283CD00022334BCDE902230E
:105550000022324B20462946FCF7A0FF00283FD00E
:1055600000222E4BCDE90423DDE9002324A1D1E95B
:105570000001FCF769FBFCF7D9FF294CA061002270
:10558000284BDDE90201FCF761FBFCF7CFFFE0618E
:105590000022254BDDE90401FCF756FBFCF7C6FFB2
:1055A000206207B0BDE8F08F0022204B404639460C
:1055B000FCF774FF0028BFD000221C4BCDE900236C
:1055C000BAE711A3D3E9002350465946FCF784FFFC
:1055D0000028BDD00CA3D3E90023CDE90223B7E70F
:1055E0000022134B20462946FCF776FF0028BBD04B
:1055F00000220F4BCDE90423B6E700BFAFF30080D4
:105600000000000000C05E40000000000020674075
:105610002491002000805640008051C000002E40A0
:10562000F09000200080514000804140008056C032
:1056300000805B40000000002DE9F04F87B04A4C2D
:10564000606AFCF761FC80468946A06AFCF75CFC56
:1056500082468B46CDE902ABE06AFCF755FC044676
:105660000D46CDE90445464609F10047CDE90067FE
:1056700000223E4B40463946FCF72EFF00283CD026
:1056800000223A4BCDE900230022394B50465946BF
:10569000FCF704FF00283DD00022354BCDE9022362
:1056A0000022344B20462946FCF7F8FE002840D063
:1056B0000022304BCDE9042300222F4BDDE900010D
:1056C000FCF7C4FAFCF732FF2C4C6062DDE90223E0
:1056D0001FA1D1E90001FCF7B7FAFCF727FFA06290
:1056E000DDE904231CA1D1E90001FCF7ADFAFCF7C8
:1056F0001DFFE06207B0BDE8F08F0022204B40465E
:105700003946FCF7CBFE0028BED000221C4BCDE969
:105710000023B9E712A3D3E9002350465946FCF70A
:10572000DBFE0028BCD00EA3D3E90023CDE9022381
:10573000B6E70022134B20462946FCF7CDFE002891
:10574000BAD000220F4BCDE90423B5E7AFF30080B8
:105750000000000000C068400000000000707240BF
:105760000000000000206740249100200080564087
:10577000008051C000002E4000405D40F0900020AD
:10578000008056C000805B4010B5FFF765FDFFF755
:1057900003FEFFF7A9FEFFF74FFF00240EE0E31E14
:1057A000022B11D8E0B20130C0B21E4B03EB8403D0
:1057B00093ED000AFFF7F8FC88B901340B2C2FDCBD
:1057C000022CECDCE0B2F0E7A31F022B03D8E0B21E
:1057D0000230C0B2E9E7E0B20330C0B2E5E71248F8
:1057E000FFF724FDD0B1114C00224FF48051204628
:1057F00001F01CFA01224FF48041204601F016FA14
:10580000642004F029FD00224FF48041204601F07D
:105810000DFA4FF47A7004F01FFDE0E70024CCE7A6
:1058200010BD00BFF090002020C20020000C0240FC
:1058300008B5D0F8000305F062F808BD08B5D0F847
:10584000000305F078F808BD08B5D0F8000305F0AE
:1058500087F808BD08B5D0F8000305F0A1F808BD29
:1058600008B5D0F8000305F053F808BD08B5D0F826
:10587000000305F05CF808BD022805D8DFE800F059
:1058800005040200012070470220704708B5D0F8D7
:10589000D00300F011FCFFF7EFFF08BDF8B5066874
:1058A000346A04F00F07C4F34343C4F30A14022B11
:1058B00000D0F8BD0546002CFBD02C2303FB0703CA
:1058C000596C0029F5D02C2303FB07031A6D2244E1
:1058D000DB6C9A4206D92C2000FB0755042385F87F
:1058E0006030E6E72246304600F052FC2C2303FBF2
:1058F00007535A6C22445A641A6D22441A6506EB07
:105900004716D6F81025C2F3C942B3F84030A34277
:10591000CFD1002ACDD0D6F8003523F0804343F014
:105920000043C6F800352C2303FB075595F8543087
:1059300083F0010385F85430BBE730B583B00446EB
:105940000568D5F840340193D5F840340093009BA6
:1059500023F02E030093019B13F0020F07D0019B4D
:1059600013F0010F25D1009B43F002030093019B2C
:1059700013F0080F10D0009B43F008030093019B25
:1059800013F0040F2DD0A369022B15D0E368012B6F
:1059900022D02046FFF764FF019B13F0200F03D0B5
:1059A000009B43F020030093009BC5F8403403B0F4
:1059B00030BDFFF743FFD6E7019B03F4C023B3F5E7
:1059C000802F04D00121206800F010FCE1E70221C3
:1059D000206800F00BFCDCE74EF66022C5F80424DA
:1059E000D7E72046FFF742FFD6E7F8B504460E4654
:1059F000076807EB411707F5A065AB6813F0040FC4
:105A00000AD1AB6813F4807F49D1AB6813F0200F43
:105A100052D02023AB600AE00423AB602C2303FBAD
:105A20000103062283F86120006800F004FCAB68E3
:105A300013F4007F71D1AB6813F0010F00F09D806B
:105A4000236943B12C2303FB06439A6C2969C1F3F4
:105A50001201521A1A652C2303FB0643012283F814
:105A600061200021D965AA6093F83F30002B5CD0FB
:105A7000022B5AD0032B01D0012B5CD1D7F8003573
:105A800043F00053C7F800352C2303FB06430122E3
:105A900083F8602031462046FFF7DCFE4BE04FF4F0
:105AA0008073AB602C2303FB0103072283F8612082
:105AB000006800F0C0FBBAE7AB6813F0080F13D121
:105AC000AB6813F4806F1BD1AB6813F0800FAED0BE
:105AD0008023AB602C2303FB0103062283F86120A3
:105AE000006800F0A8FBA2E70823AB602C2303FBAF
:105AF0000103052283F86120006800F09CFB96E713
:105B00004FF48063AB602C2303FB0103082283F86E
